{
  "contractName": "AccountManager",
  "abi": [
    {
      "inputs": [],
      "stateMutability": "nonpayable",
      "type": "constructor"
    },
    {
      "stateMutability": "payable",
      "type": "fallback",
      "payable": true
    },
    {
      "stateMutability": "payable",
      "type": "receive",
      "payable": true
    },
    {
      "inputs": [],
      "name": "register",
      "outputs": [],
      "stateMutability": "nonpayable",
      "type": "function"
    },
    {
      "inputs": [],
      "name": "isSenderRegistered",
      "outputs": [
        {
          "internalType": "bool",
          "name": "",
          "type": "bool"
        }
      ],
      "stateMutability": "view",
      "type": "function",
      "constant": true
    },
    {
      "inputs": [],
      "name": "getThisUserAddress",
      "outputs": [
        {
          "internalType": "address",
          "name": "",
          "type": "address"
        }
      ],
      "stateMutability": "view",
      "type": "function",
      "constant": true
    },
    {
      "inputs": [
        {
          "internalType": "uint256",
          "name": "_index",
          "type": "uint256"
        }
      ],
      "name": "getUserAddress",
      "outputs": [
        {
          "internalType": "address",
          "name": "",
          "type": "address"
        }
      ],
      "stateMutability": "view",
      "type": "function",
      "constant": true
    },
    {
      "inputs": [],
      "name": "getUsersCount",
      "outputs": [
        {
          "internalType": "uint256",
          "name": "",
          "type": "uint256"
        }
      ],
      "stateMutability": "view",
      "type": "function",
      "constant": true
    }
  ],
  "bytecode": "0x608060405234801561001057600080fd5b50600480546001600160a01b03191633179055610d8b806100326000396000f3fe60806040526004361061004e5760003560e01c80631aa3a008146100575780633aafa3881461006c57806390d976e214610097578063a4a1e263146100c4578063feded674146100e657610055565b3661005557005b005b34801561006357600080fd5b506100556100fb565b34801561007857600080fd5b506100816101dd565b60405161008e9190610287565b60405180910390f35b3480156100a357600080fd5b506100b76100b236600461025b565b6101f3565b60405161008e9190610273565b3480156100d057600080fd5b506100d961022c565b60405161008e9190610292565b3480156100f257600080fd5b506100b7610232565b3360009081526003602052604090205460ff161561011857600080fd5b6000336040516101279061024e565b6101319190610273565b604051809103906000f08015801561014d573d6000803e3d6000fd5b5033600090815260208190526040812080546001600160a01b0319166001600160a01b038416179055600280549293508392600192918261018d8361029b565b9091555081526020808201929092526040908101600090812080546001600160a01b0319166001600160a01b03959095169490941790935533835260039091529020805460ff1916600117905550565b3360009081526003602052604090205460ff1690565b600080600254118015610207575060025482105b61021057600080fd5b506000908152600160205260409020546001600160a01b031690565b60025490565b336000908152602081905260409020546001600160a01b031690565b610a93806102c383390190565b60006020828403121561026c578081fd5b5035919050565b6001600160a01b0391909116815260200190565b901515815260200190565b90815260200190565b60006000198214156102bb57634e487b7160e01b81526011600452602481fd5b506001019056fe608060405234801561001057600080fd5b50604051610a93380380610a9383398101604081905261002f91610054565b600380546001600160a01b0319166001600160a01b0392909216919091179055610082565b600060208284031215610065578081fd5b81516001600160a01b038116811461007b578182fd5b9392505050565b610a02806100916000396000f3fe60806040526004361061008a5760003560e01c80636564a278116100595780636564a2781461012d578063836248821461015a57806389f7f9e71461016f578063a8c6178f1461019c578063afbd2db4146101bc57610091565b8063224ae14a146100935780632f76ca39146100b357806340731c24146100de57806346b95c991461010d57610091565b3661009157005b005b34801561009f57600080fd5b506100916100ae3660046107e1565b6101dc565b3480156100bf57600080fd5b506100c8610265565b6040516100d5919061092a565b60405180910390f35b3480156100ea57600080fd5b506100fe6100f9366004610865565b61026b565b6040516100d5939291906108e7565b34801561011957600080fd5b506100916101283660046107b3565b610475565b34801561013957600080fd5b5061014d6101483660046107b3565b61052d565b6040516100d591906108dc565b34801561016657600080fd5b506100c861054b565b34801561017b57600080fd5b5061018f61018a366004610865565b610551565b6040516100d591906108c8565b3480156101a857600080fd5b5061018f6101b7366004610865565b61057d565b3480156101c857600080fd5b506100916101d73660046107b3565b61059a565b6003546001600160a01b031633146101f357600080fd5b6005805460009160049183918261020983610985565b909155508152602080820192909252604001600020855190925061023291839190870190610699565b5082516102489060018301906020860190610699565b50815161025e9060028301906020850190610699565b5050505050565b60015490565b60608060606000600554118015610283575060055484105b61028c57600080fd5b6000848152600460205260408082208151606081019092528054829082906102b39061094a565b80601f01602080910402602001604051908101604052809291908181526020018280546102df9061094a565b801561032c5780601f106103015761010080835404028352916020019161032c565b820191906000526020600020905b81548152906001019060200180831161030f57829003601f168201915b505050505081526020016001820180546103459061094a565b80601f01602080910402602001604051908101604052809291908181526020018280546103719061094a565b80156103be5780601f10610393576101008083540402835291602001916103be565b820191906000526020600020905b8154815290600101906020018083116103a157829003601f168201915b505050505081526020016002820180546103d79061094a565b80601f01602080910402602001604051908101604052809291908181526020018280546104039061094a565b80156104505780601f1061042557610100808354040283529160200191610450565b820191906000526020600020905b81548152906001019060200180831161043357829003601f168201915b5050509190925250508151602083015160409093015190989297509550909350505050565b6003546001600160a01b0316331461048c57600080fd5b6003546001600160a01b038281169116148015906104c357506001600160a01b03811660009081526002602052604090205460ff16155b6104cc57600080fd5b6001805482916000918291826104e183610985565b9091555081526020808201929092526040908101600090812080546001600160a01b0319166001600160a01b03958616179055939092168352600290529020805460ff19166001179055565b6001600160a01b031660009081526002602052604090205460ff1690565b60055490565b6000600154821061056157600080fd5b506000908152602081905260409020546001600160a01b031690565b600080600154118015610591575060015482105b61056157600080fd5b6003546001600160a01b031633146105b157600080fd5b6003546001600160a01b038281169116148015906105e757506001600160a01b03811660009081526002602052604090205460ff165b6105f057600080fd5b60005b600154811015610695576000818152602081905260409020546001600160a01b03838116911614156106835760008060016000815461063190610933565b91829055508152602080820192909252604090810160009081205484825281845282822080546001600160a01b0319166001600160a01b039283161790558516815260029092529020805460ff191690555b8061068d81610985565b9150506105f3565b5050565b8280546106a59061094a565b90600052602060002090601f0160209004810192826106c7576000855561070d565b82601f106106e057805160ff191683800117855561070d565b8280016001018555821561070d579182015b8281111561070d5782518255916020019190600101906106f2565b5061071992915061071d565b5090565b5b80821115610719576000815560010161071e565b600082601f830112610742578081fd5b813567ffffffffffffffff8082111561075d5761075d6109b6565b604051601f8301601f191681016020018281118282101715610781576107816109b6565b604052828152848301602001861015610798578384fd5b82602086016020830137918201602001929092529392505050565b6000602082840312156107c4578081fd5b81356001600160a01b03811681146107da578182fd5b9392505050565b6000806000606084860312156107f5578182fd5b833567ffffffffffffffff8082111561080c578384fd5b61081887838801610732565b9450602086013591508082111561082d578384fd5b61083987838801610732565b9350604086013591508082111561084e578283fd5b5061085b86828701610732565b9150509250925092565b600060208284031215610876578081fd5b5035919050565b60008151808452815b818110156108a257602081850181015186830182015201610886565b818111156108b35782602083870101525b50601f01601f19169290920160200192915050565b6001600160a01b0391909116815260200190565b901515815260200190565b6000606082526108fa606083018661087d565b828103602084015261090c818661087d565b90508281036040840152610920818561087d565b9695505050505050565b90815260200190565b600081610942576109426109a0565b506000190190565b60028104600182168061095e57607f821691505b6020821081141561097f57634e487b7160e01b600052602260045260246000fd5b50919050565b6000600019821415610999576109996109a0565b5060010190565b634e487b7160e01b600052601160045260246000fd5b634e487b7160e01b600052604160045260246000fdfea2646970667358221220168769e0678d4335b876186eab4377c453085bc7514aed0998fdd68fc3bdf17d64736f6c63430008000033a26469706673582212202a2a4990a300aaf4b1ab1c8e8837b582131f3a0d9730fba5dfcf26cb4f881e6564736f6c63430008000033",
  "immutableReferences": {},
  "source": "// SPDX-License-Identifier: MIT\r\npragma solidity >=0.4.22 <=0.8.0;\r\nimport \"./User.sol\";\r\n\r\ncontract AccountManager {\r\n  mapping(address => address) users;\r\n  mapping(uint => address) usersList;\r\n  uint usersCount;\r\n  mapping(address => bool) registered;\r\n\r\n  address payable owner;\r\n\r\n  constructor() {\r\n    owner = payable(msg.sender);\r\n  }\r\n\r\n  function register() public {\r\n    require(!registered[msg.sender]);\r\n    User u = (new User(msg.sender));\r\n    users[msg.sender] = address(u);\r\n    usersList[usersCount++]=address(u);\r\n    registered[msg.sender] = true;\r\n  }\r\n\r\n  function isSenderRegistered() public view returns (bool){\r\n    return registered[msg.sender];\r\n  }\r\n\r\n  function getThisUserAddress() public view returns (address){\r\n    return users[msg.sender];\r\n  }\r\n\r\n  function getUserAddress(uint _index) public view returns (address){\r\n    require(usersCount > 0 && _index < usersCount);\r\n    return usersList[_index];\r\n  }\r\n\r\n  function getUsersCount() public view returns (uint){\r\n    return usersCount;\r\n  }\r\n\r\n  receive () external payable {}\r\n\r\n  fallback () external payable{}\r\n}\r\n",
  "sourcePath": "D:/Documenti/Scuola/SocialNetworkEthereum/contracts/AccountManager.sol",
  "compiler": {
    "name": "solc",
    "version": "0.8.0+commit.c7dfd78e.Emscripten.clang"
  },
  "schemaVersion": "3.3.3",
  "updatedAt": "2021-01-17T16:56:24.725Z",
  "networkType": "ethereum",
  "devdoc": {
    "kind": "dev",
    "methods": {},
    "version": 1
  },
  "userdoc": {
    "kind": "user",
    "methods": {},
    "version": 1
  }
}