{
  "contractName": "User",
  "abi": [
    {
      "inputs": [
        {
          "internalType": "address",
          "name": "_owner",
          "type": "address"
        }
      ],
      "stateMutability": "nonpayable",
      "type": "constructor"
    },
    {
      "stateMutability": "payable",
      "type": "receive",
      "payable": true
    },
    {
      "inputs": [
        {
          "internalType": "string",
          "name": "_content",
          "type": "string"
        },
        {
          "internalType": "string",
          "name": "_ipfsHash",
          "type": "string"
        },
        {
          "internalType": "string",
          "name": "_timeStamp",
          "type": "string"
        }
      ],
      "name": "addPost",
      "outputs": [],
      "stateMutability": "nonpayable",
      "type": "function"
    },
    {
      "inputs": [
        {
          "internalType": "uint256",
          "name": "_index",
          "type": "uint256"
        }
      ],
      "name": "getPost",
      "outputs": [
        {
          "internalType": "string",
          "name": "",
          "type": "string"
        },
        {
          "internalType": "string",
          "name": "",
          "type": "string"
        },
        {
          "internalType": "string",
          "name": "",
          "type": "string"
        }
      ],
      "stateMutability": "view",
      "type": "function",
      "constant": true
    },
    {
      "inputs": [
        {
          "internalType": "uint256",
          "name": "_index",
          "type": "uint256"
        }
      ],
      "name": "getFollowing",
      "outputs": [
        {
          "internalType": "address",
          "name": "",
          "type": "address"
        }
      ],
      "stateMutability": "view",
      "type": "function",
      "constant": true
    },
    {
      "inputs": [
        {
          "internalType": "address",
          "name": "_follow",
          "type": "address"
        }
      ],
      "name": "addFollowing",
      "outputs": [],
      "stateMutability": "nonpayable",
      "type": "function"
    },
    {
      "inputs": [
        {
          "internalType": "address",
          "name": "_unfollow",
          "type": "address"
        }
      ],
      "name": "deleteFollowing",
      "outputs": [],
      "stateMutability": "nonpayable",
      "type": "function"
    },
    {
      "inputs": [
        {
          "internalType": "address",
          "name": "_toCheck",
          "type": "address"
        }
      ],
      "name": "checkIsFollowing",
      "outputs": [
        {
          "internalType": "bool",
          "name": "",
          "type": "bool"
        }
      ],
      "stateMutability": "view",
      "type": "function",
      "constant": true
    },
    {
      "inputs": [
        {
          "internalType": "uint256",
          "name": "_index",
          "type": "uint256"
        }
      ],
      "name": "getFollowingAddress",
      "outputs": [
        {
          "internalType": "address",
          "name": "",
          "type": "address"
        }
      ],
      "stateMutability": "view",
      "type": "function",
      "constant": true
    },
    {
      "inputs": [],
      "name": "getPostsCount",
      "outputs": [
        {
          "internalType": "uint256",
          "name": "",
          "type": "uint256"
        }
      ],
      "stateMutability": "view",
      "type": "function",
      "constant": true
    },
    {
      "inputs": [],
      "name": "getFollowingCount",
      "outputs": [
        {
          "internalType": "uint256",
          "name": "",
          "type": "uint256"
        }
      ],
      "stateMutability": "view",
      "type": "function",
      "constant": true
    }
  ],
  "bytecode": "0x608060405234801561001057600080fd5b50604051610a7e380380610a7e83398101604081905261002f91610054565b600580546001600160a01b0319166001600160a01b0392909216919091179055610082565b600060208284031215610065578081fd5b81516001600160a01b038116811461007b578182fd5b9392505050565b6109ed806100916000396000f3fe60806040526004361061008a5760003560e01c80636564a278116100595780636564a27814610132578063836248821461015f57806389f7f9e714610174578063a8c6178f14610174578063afbd2db4146101a157610091565b8063224ae14a146100965780632f76ca39146100b857806340731c24146100e357806346b95c991461011257610091565b3661009157005b600080fd5b3480156100a257600080fd5b506100b66100b13660046107cc565b6101c1565b005b3480156100c457600080fd5b506100cd61024a565b6040516100da9190610915565b60405180910390f35b3480156100ef57600080fd5b506101036100fe366004610850565b610250565b6040516100da939291906108d2565b34801561011e57600080fd5b506100b661012d36600461079e565b610466565b34801561013e57600080fd5b5061015261014d36600461079e565b61051e565b6040516100da91906108c7565b34801561016b57600080fd5b506100cd61053c565b34801561018057600080fd5b5061019461018f366004610850565b610542565b6040516100da91906108b3565b3480156101ad57600080fd5b506100b66101bc36600461079e565b610585565b6005546001600160a01b031633146101d857600080fd5b600480546000916003918391826101ee83610970565b909155508152602080820192909252604001600020855190925061021791839190870190610684565b50825161022d9060018301906020860190610684565b5081516102439060028301906020850190610684565b5050505050565b60015490565b606080606060006004541180156102675750600084115b8015610274575060045484105b61027d57600080fd5b6000848152600360205260408082208151606081019092528054829082906102a490610935565b80601f01602080910402602001604051908101604052809291908181526020018280546102d090610935565b801561031d5780601f106102f25761010080835404028352916020019161031d565b820191906000526020600020905b81548152906001019060200180831161030057829003601f168201915b5050505050815260200160018201805461033690610935565b80601f016020809104026020016040519081016040528092919081815260200182805461036290610935565b80156103af5780601f10610384576101008083540402835291602001916103af565b820191906000526020600020905b81548152906001019060200180831161039257829003601f168201915b505050505081526020016002820180546103c890610935565b80601f01602080910402602001604051908101604052809291908181526020018280546103f490610935565b80156104415780601f1061041657610100808354040283529160200191610441565b820191906000526020600020905b81548152906001019060200180831161042457829003601f168201915b5050509190925250508151602083015160409093015190989297509550909350505050565b6005546001600160a01b0316331461047d57600080fd5b6005546001600160a01b038281169116148015906104b457506001600160a01b03811660009081526002602052604090205460ff16155b6104bd57600080fd5b6001805482916000918291826104d283610970565b9091555081526020808201929092526040908101600090812080546001600160a01b0319166001600160a01b03958616179055939092168352600290529020805460ff19166001179055565b6001600160a01b031660009081526002602052604090205460ff1690565b60045490565b600080600154118015610553575060015b8015610560575060015482105b61056957600080fd5b506000908152602081905260409020546001600160a01b031690565b6005546001600160a01b0316331461059c57600080fd5b6005546001600160a01b038281169116148015906105d257506001600160a01b03811660009081526002602052604090205460ff165b6105db57600080fd5b60005b600154811015610680576000818152602081905260409020546001600160a01b038381169116141561066e5760008060016000815461061c9061091e565b91829055508152602080820192909252604090810160009081205484825281845282822080546001600160a01b0319166001600160a01b039283161790558516815260029092529020805460ff191690555b8061067881610970565b9150506105de565b5050565b82805461069090610935565b90600052602060002090601f0160209004810192826106b257600085556106f8565b82601f106106cb57805160ff19168380011785556106f8565b828001600101855582156106f8579182015b828111156106f85782518255916020019190600101906106dd565b50610704929150610708565b5090565b5b808211156107045760008155600101610709565b600082601f83011261072d578081fd5b813567ffffffffffffffff80821115610748576107486109a1565b604051601f8301601f19168101602001828111828210171561076c5761076c6109a1565b604052828152848301602001861015610783578384fd5b82602086016020830137918201602001929092529392505050565b6000602082840312156107af578081fd5b81356001600160a01b03811681146107c5578182fd5b9392505050565b6000806000606084860312156107e0578182fd5b833567ffffffffffffffff808211156107f7578384fd5b6108038783880161071d565b94506020860135915080821115610818578384fd5b6108248783880161071d565b93506040860135915080821115610839578283fd5b506108468682870161071d565b9150509250925092565b600060208284031215610861578081fd5b5035919050565b60008151808452815b8181101561088d57602081850181015186830182015201610871565b8181111561089e5782602083870101525b50601f01601f19169290920160200192915050565b6001600160a01b0391909116815260200190565b901515815260200190565b6000606082526108e56060830186610868565b82810360208401526108f78186610868565b9050828103604084015261090b8185610868565b9695505050505050565b90815260200190565b60008161092d5761092d61098b565b506000190190565b60028104600182168061094957607f821691505b6020821081141561096a57634e487b7160e01b600052602260045260246000fd5b50919050565b60006000198214156109845761098461098b565b5060010190565b634e487b7160e01b600052601160045260246000fd5b634e487b7160e01b600052604160045260246000fdfea2646970667358221220b43e05485498c59a9340f40fe5ec8cfb64cb40fe4337ef2edc1ccf8627da15c464736f6c63430008000033",
  "immutableReferences": {},
  "source": "// SPDX-License-Identifier: MIT\r\npragma solidity >=0.4.22 <=0.8.0;\r\n\r\ncontract User {\r\n  //like an array of following User contracts' addresses\r\n  mapping(uint => address) following;\r\n  uint followingCount;\r\n  //mapping of all possible addresses to a boolean value\r\n  //the default boolean value result is false\r\n  mapping(address => bool) isFollowing;\r\n  //like an array of posts\r\n  mapping(uint => Post) posts;\r\n  uint postsCount;\r\n\r\n  //storing this contract's owner address\r\n  address payable owner;\r\n\r\n  //custom type to manage posts\r\n  struct Post {\r\n    string content;\r\n    string ipfsHash;\r\n    string timeStamp;\r\n  }\r\n\r\n  //adds the specified code in every function using this modifier\r\n  modifier onlyOwner{\r\n    require(msg.sender == owner);\r\n    _;//function's code will be placed at _\r\n  }\r\n\r\n  constructor(address _owner) {\r\n    owner = payable(_owner);\r\n  }\r\n\r\n  //the memory keyword tells to store the strings in volatile memory\r\n  function addPost(string memory _content, string memory _ipfsHash, string memory _timeStamp) public onlyOwner{\r\n    //adds a Post variable to the mapping while incrementing the index\r\n    //storage keyword tells to save the mapping in account's persistent storage\r\n    //creating mappings in volatile memory is prohibited in this version of solidity\r\n    //p is a pointer to the Post variable, so you set its values after\r\n    Post storage p = posts[postsCount++];\r\n    p.content = _content;\r\n    p.ipfsHash = _ipfsHash;\r\n    p.timeStamp = _timeStamp;\r\n  }\r\n\r\n  //the memory keyword tells to store the strings in volatile memory\r\n  function getPost(uint _index) public view returns (string memory, string memory, string memory) {\r\n    //index must be in interval and at least one post\r\n    require(postsCount > 0 && _index > 0 && _index < postsCount);\r\n    Post memory p = posts[_index];\r\n    return (p.content,p.ipfsHash,p.timeStamp);//single values can be loaded in memory\r\n  }\r\n\r\n  function getFollowing(uint _index) public view returns (address) {\r\n    //index must be in interval and at least one following\r\n    require(followingCount > 0 && _index >= 0 && _index < followingCount);\r\n    return following[_index];\r\n  }\r\n\r\n  function addFollowing(address _follow) public onlyOwner{\r\n    //can't follow myself and must not be already following\r\n    require(_follow != owner && !isFollowing[_follow]);\r\n    following[followingCount++] = _follow;\r\n    isFollowing[_follow] = true;\r\n  }\r\n\r\n  function deleteFollowing(address _unfollow) public onlyOwner{\r\n    //can't unfollow myself and must be following to unfollow\r\n    require(_unfollow != owner && isFollowing[_unfollow]);\r\n    for(uint i=0;i<followingCount;i++){\r\n      if(following[i] == _unfollow) {\r\n        //substitute removed with the last address\r\n        //decreasing counter will make lsat unreachable and overwritten at next addFollowing\r\n        following[i] = following[--followingCount];\r\n        isFollowing[_unfollow] = false;\r\n      }\r\n    }\r\n  }\r\n\r\n  function checkIsFollowing(address _toCheck) public view returns (bool) {\r\n    return isFollowing[_toCheck];\r\n  }\r\n\r\n  function getFollowingAddress(uint _index) public view returns (address) {\r\n    //index must be in interval and at least one following\r\n    require(followingCount > 0 && _index >= 0 && _index < followingCount);\r\n    return following[_index];\r\n  }\r\n\r\n  function getPostsCount() public view returns (uint){\r\n    return postsCount;\r\n  }\r\n\r\n  function getFollowingCount() public view returns (uint){\r\n    return followingCount;\r\n  }\r\n\r\n  //executed when contract called with empty call data\r\n  //for example to receive ether with plain transactions\r\n  receive () external payable {}\r\n}\r\n",
  "sourcePath": "D:\\Documenti\\Scuola\\SocialNetworkEthereum\\contracts\\User.sol",
  "compiler": {
    "name": "solc",
    "version": "0.8.0+commit.c7dfd78e.Emscripten.clang"
  },
  "schemaVersion": "3.3.3",
  "updatedAt": "2021-01-24T11:19:53.560Z",
  "networkType": "ethereum",
  "devdoc": {
    "kind": "dev",
    "methods": {},
    "version": 1
  },
  "userdoc": {
    "kind": "user",
    "methods": {},
    "version": 1
  }
}